{
  "_format": "hh-sol-artifact-1",
  "contractName": "EducationalRecordSystem",
  "sourceName": "contracts/mycontract.sol",
  "abi": [
    {
      "inputs": [],
      "stateMutability": "nonpayable",
      "type": "constructor"
    },
    {
      "anonymous": false,
      "inputs": [
        {
          "indexed": false,
          "internalType": "uint256",
          "name": "adharNumber",
          "type": "uint256"
        },
        {
          "indexed": false,
          "internalType": "string",
          "name": "fullName",
          "type": "string"
        },
        {
          "indexed": false,
          "internalType": "string",
          "name": "state",
          "type": "string"
        },
        {
          "indexed": false,
          "internalType": "string",
          "name": "district",
          "type": "string"
        },
        {
          "indexed": false,
          "internalType": "string",
          "name": "schoolOrCollege",
          "type": "string"
        },
        {
          "indexed": false,
          "internalType": "string",
          "name": "year10",
          "type": "string"
        },
        {
          "indexed": false,
          "internalType": "string",
          "name": "year12",
          "type": "string"
        },
        {
          "indexed": false,
          "internalType": "string",
          "name": "engineeringYear",
          "type": "string"
        },
        {
          "indexed": false,
          "internalType": "string",
          "name": "experience",
          "type": "string"
        },
        {
          "indexed": false,
          "internalType": "string",
          "name": "experienceYear",
          "type": "string"
        }
      ],
      "name": "RecordAdded",
      "type": "event"
    },
    {
      "anonymous": false,
      "inputs": [
        {
          "indexed": false,
          "internalType": "uint256",
          "name": "adharNumber",
          "type": "uint256"
        }
      ],
      "name": "RecordDeleted",
      "type": "event"
    },
    {
      "anonymous": false,
      "inputs": [
        {
          "indexed": false,
          "internalType": "uint256",
          "name": "adharNumber",
          "type": "uint256"
        },
        {
          "indexed": false,
          "internalType": "string",
          "name": "newEngineeringYear",
          "type": "string"
        },
        {
          "indexed": false,
          "internalType": "string",
          "name": "newDistrict",
          "type": "string"
        }
      ],
      "name": "RecordUpdated",
      "type": "event"
    },
    {
      "inputs": [
        {
          "internalType": "uint256",
          "name": "_adharNumber",
          "type": "uint256"
        },
        {
          "internalType": "string",
          "name": "_fullName",
          "type": "string"
        },
        {
          "internalType": "string",
          "name": "_state",
          "type": "string"
        },
        {
          "internalType": "string",
          "name": "_district",
          "type": "string"
        },
        {
          "internalType": "string",
          "name": "_schoolOrCollege",
          "type": "string"
        },
        {
          "internalType": "string",
          "name": "_year10",
          "type": "string"
        },
        {
          "internalType": "string",
          "name": "_year12",
          "type": "string"
        },
        {
          "internalType": "string",
          "name": "_engineeringYear",
          "type": "string"
        },
        {
          "internalType": "string",
          "name": "_experience",
          "type": "string"
        },
        {
          "internalType": "string",
          "name": "_experienceYear",
          "type": "string"
        }
      ],
      "name": "addRecord",
      "outputs": [],
      "stateMutability": "nonpayable",
      "type": "function"
    },
    {
      "inputs": [],
      "name": "admin",
      "outputs": [
        {
          "internalType": "address",
          "name": "",
          "type": "address"
        }
      ],
      "stateMutability": "view",
      "type": "function"
    },
    {
      "inputs": [
        {
          "internalType": "uint256",
          "name": "_adharNumber",
          "type": "uint256"
        }
      ],
      "name": "deleteRecord",
      "outputs": [],
      "stateMutability": "nonpayable",
      "type": "function"
    },
    {
      "inputs": [
        {
          "internalType": "uint256",
          "name": "",
          "type": "uint256"
        }
      ],
      "name": "recordIds",
      "outputs": [
        {
          "internalType": "uint256",
          "name": "",
          "type": "uint256"
        }
      ],
      "stateMutability": "view",
      "type": "function"
    },
    {
      "inputs": [
        {
          "internalType": "uint256",
          "name": "",
          "type": "uint256"
        }
      ],
      "name": "records",
      "outputs": [
        {
          "internalType": "uint256",
          "name": "adharNumber",
          "type": "uint256"
        },
        {
          "internalType": "string",
          "name": "fullName",
          "type": "string"
        },
        {
          "internalType": "string",
          "name": "state",
          "type": "string"
        },
        {
          "internalType": "string",
          "name": "district",
          "type": "string"
        },
        {
          "internalType": "string",
          "name": "schoolOrCollege",
          "type": "string"
        },
        {
          "internalType": "string",
          "name": "year10",
          "type": "string"
        },
        {
          "internalType": "string",
          "name": "year12",
          "type": "string"
        },
        {
          "internalType": "string",
          "name": "engineeringYear",
          "type": "string"
        },
        {
          "internalType": "string",
          "name": "experience",
          "type": "string"
        },
        {
          "internalType": "string",
          "name": "experienceYear",
          "type": "string"
        }
      ],
      "stateMutability": "view",
      "type": "function"
    },
    {
      "inputs": [
        {
          "internalType": "uint256",
          "name": "_adharNumber",
          "type": "uint256"
        },
        {
          "internalType": "string",
          "name": "_newEngineeringYear",
          "type": "string"
        },
        {
          "internalType": "string",
          "name": "_newDistrict",
          "type": "string"
        }
      ],
      "name": "updateRecord",
      "outputs": [],
      "stateMutability": "nonpayable",
      "type": "function"
    }
  ],
  "bytecode": "0x608060405234801561001057600080fd5b50600080546001600160a01b03191633179055610fe1806100326000396000f3fe608060405234801561001057600080fd5b50600436106100625760003560e01c8063061f981114610067578063344610671461007c5780633812c6a8146100ae578063725e6f4a146100c157806397ddbef9146100d4578063f851a440146100f5575b600080fd5b61007a610075366004610b3e565b610120565b005b61008f61008a366004610b3e565b610272565b6040516100a59a99989796959493929190610ba4565b60405180910390f35b61007a6100bc366004610d14565b610786565b61007a6100cf366004610d81565b610872565b6100e76100e2366004610b3e565b610a47565b6040519081526020016100a5565b600054610108906001600160a01b031681565b6040516001600160a01b0390911681526020016100a5565b6000546001600160a01b031633146101535760405162461bcd60e51b815260040161014a90610ef1565b60405180910390fd5b600081815260016020526040902080546101a85760405162461bcd60e51b81526020600482015260166024820152752932b1b7b932103237b2b9903737ba1032bc34b9ba1760511b604482015260640161014a565b6000828152600160208190526040822082815591906101c990830182610a68565b6101d7600283016000610a68565b6101e5600383016000610a68565b6101f3600483016000610a68565b610201600583016000610a68565b61020f600683016000610a68565b61021d600783016000610a68565b61022b600883016000610a68565b610239600983016000610a68565b50506040518281527fb88d8be2c9fe5e1ef7087e07e8a84d625e33292845de220553103e7d540ada0c9060200160405180910390a15050565b60016020819052600091825260409091208054918101805461029390610f3b565b80601f01602080910402602001604051908101604052809291908181526020018280546102bf90610f3b565b801561030c5780601f106102e15761010080835404028352916020019161030c565b820191906000526020600020905b8154815290600101906020018083116102ef57829003601f168201915b50505050509080600201805461032190610f3b565b80601f016020809104026020016040519081016040528092919081815260200182805461034d90610f3b565b801561039a5780601f1061036f5761010080835404028352916020019161039a565b820191906000526020600020905b81548152906001019060200180831161037d57829003601f168201915b5050505050908060030180546103af90610f3b565b80601f01602080910402602001604051908101604052809291908181526020018280546103db90610f3b565b80156104285780601f106103fd57610100808354040283529160200191610428565b820191906000526020600020905b81548152906001019060200180831161040b57829003601f168201915b50505050509080600401805461043d90610f3b565b80601f016020809104026020016040519081016040528092919081815260200182805461046990610f3b565b80156104b65780601f1061048b576101008083540402835291602001916104b6565b820191906000526020600020905b81548152906001019060200180831161049957829003601f168201915b5050505050908060050180546104cb90610f3b565b80601f01602080910402602001604051908101604052809291908181526020018280546104f790610f3b565b80156105445780601f1061051957610100808354040283529160200191610544565b820191906000526020600020905b81548152906001019060200180831161052757829003601f168201915b50505050509080600601805461055990610f3b565b80601f016020809104026020016040519081016040528092919081815260200182805461058590610f3b565b80156105d25780601f106105a7576101008083540402835291602001916105d2565b820191906000526020600020905b8154815290600101906020018083116105b557829003601f168201915b5050505050908060070180546105e790610f3b565b80601f016020809104026020016040519081016040528092919081815260200182805461061390610f3b565b80156106605780601f1061063557610100808354040283529160200191610660565b820191906000526020600020905b81548152906001019060200180831161064357829003601f168201915b50505050509080600801805461067590610f3b565b80601f01602080910402602001604051908101604052809291908181526020018280546106a190610f3b565b80156106ee5780601f106106c3576101008083540402835291602001916106ee565b820191906000526020600020905b8154815290600101906020018083116106d157829003601f168201915b50505050509080600901805461070390610f3b565b80601f016020809104026020016040519081016040528092919081815260200182805461072f90610f3b565b801561077c5780601f106107515761010080835404028352916020019161077c565b820191906000526020600020905b81548152906001019060200180831161075f57829003601f168201915b505050505090508a565b6000546001600160a01b031633146107b05760405162461bcd60e51b815260040161014a90610ef1565b600083815260016020526040902080546108055760405162461bcd60e51b81526020600482015260166024820152752932b1b7b932103237b2b9903737ba1032bc34b9ba1760511b604482015260640161014a565b825161081a9060078301906020860190610aa5565b5081516108309060038301906020850190610aa5565b507fd023cc10d90c6f37f5d79613b9204e59bae2530cca36ecc92c4bb5f1fa9e7ad084848460405161086493929190610f76565b60405180910390a150505050565b6000546001600160a01b0316331461089c5760405162461bcd60e51b815260040161014a90610ef1565b60008a81526001602052604090208054156108f25760405162461bcd60e51b81526020600482015260166024820152752932b1b7b9321030b63932b0b23c9032bc34b9ba399760511b604482015260640161014a565b8a8155895161090a90600183019060208d0190610aa5565b50885161092090600283019060208c0190610aa5565b50875161093690600383019060208b0190610aa5565b50865161094c90600483019060208a0190610aa5565b5085516109629060058301906020890190610aa5565b5084516109789060068301906020880190610aa5565b50835161098e9060078301906020870190610aa5565b5082516109a49060088301906020860190610aa5565b5081516109ba9060098301906020850190610aa5565b50600280546001810182556000919091527f405787fa12a823e0f2b7631cc41b3ba8828b3321ca811111fa75cd3aa3bb5ace018b90556040517fe22d991178829b01019078885e2a50cd9654cf428d7cd26fe257932bfe7919ae90610a32908d908d908d908d908d908d908d908d908d908d90610ba4565b60405180910390a15050505050505050505050565b60028181548110610a5757600080fd5b600091825260209091200154905081565b508054610a7490610f3b565b6000825580601f10610a84575050565b601f016020900490600052602060002090810190610aa29190610b29565b50565b828054610ab190610f3b565b90600052602060002090601f016020900481019282610ad35760008555610b19565b82601f10610aec57805160ff1916838001178555610b19565b82800160010185558215610b19579182015b82811115610b19578251825591602001919060010190610afe565b50610b25929150610b29565b5090565b5b80821115610b255760008155600101610b2a565b600060208284031215610b5057600080fd5b5035919050565b6000815180845260005b81811015610b7d57602081850181015186830182015201610b61565b81811115610b8f576000602083870101525b50601f01601f19169290920160200192915050565b60006101408c8352806020840152610bbe8184018d610b57565b90508281036040840152610bd2818c610b57565b90508281036060840152610be6818b610b57565b90508281036080840152610bfa818a610b57565b905082810360a0840152610c0e8189610b57565b905082810360c0840152610c228188610b57565b905082810360e0840152610c368187610b57565b9050828103610100840152610c4b8186610b57565b9050828103610120840152610c608185610b57565b9d9c50505050505050505050505050565b634e487b7160e01b600052604160045260246000fd5b600082601f830112610c9857600080fd5b813567ffffffffffffffff80821115610cb357610cb3610c71565b604051601f8301601f19908116603f01168101908282118183101715610cdb57610cdb610c71565b81604052838152866020858801011115610cf457600080fd5b836020870160208301376000602085830101528094505050505092915050565b600080600060608486031215610d2957600080fd5b83359250602084013567ffffffffffffffff80821115610d4857600080fd5b610d5487838801610c87565b93506040860135915080821115610d6a57600080fd5b50610d7786828701610c87565b9150509250925092565b6000806000806000806000806000806101408b8d031215610da157600080fd5b8a35995060208b013567ffffffffffffffff80821115610dc057600080fd5b610dcc8e838f01610c87565b9a5060408d0135915080821115610de257600080fd5b610dee8e838f01610c87565b995060608d0135915080821115610e0457600080fd5b610e108e838f01610c87565b985060808d0135915080821115610e2657600080fd5b610e328e838f01610c87565b975060a08d0135915080821115610e4857600080fd5b610e548e838f01610c87565b965060c08d0135915080821115610e6a57600080fd5b610e768e838f01610c87565b955060e08d0135915080821115610e8c57600080fd5b610e988e838f01610c87565b94506101008d0135915080821115610eaf57600080fd5b610ebb8e838f01610c87565b93506101208d0135915080821115610ed257600080fd5b50610edf8d828e01610c87565b9150509295989b9194979a5092959850565b6020808252602a908201527f4f6e6c79207468652061646d696e2063616e20706572666f726d20746869732060408201526937b832b930ba34b7b71760b11b606082015260800190565b600181811c90821680610f4f57607f821691505b60208210811415610f7057634e487b7160e01b600052602260045260246000fd5b50919050565b838152606060208201526000610f8f6060830185610b57565b8281036040840152610fa18185610b57565b969550505050505056fea264697066735822122024c714ef19d1d20bfd08de75e8426b8fdc60bc83ea4a0d63a210b86ea95ce11664736f6c63430008090033",
  "linkReferences": {},
  "deployedLinkReferences": {}
}